:100F6A004E6F772054656D3A2020202E2020432092
:100F7A000054483A202020432020544C3A20202074
:020F8A00430022
:0C0FF300010D00010800010928010A0A94
:0B100000EF1FAC0670011E4C70F622C2
:0F0EEC008F807F017E00120EFBD2A77F017E0058
:100EFB00D3EF9400EE940040147D6E7C00ED1D70DA
:0D0F0B00011CED4C70F7EF1F70E61E80E337
:010F180022B6
:100F4200E4FDD2A17F08FE121000C2A17F507E00F4
:100F5200121000D2A17F0E7E00121000A2A1E43373
:080F6200FD7F147E0002100067
:100FAB00E4FB7D08C2A1EBC313FBD2A130A1034329
:0D0FBB0003807F047E00121000DDE9AF030B
:010FC8002206
:020FC900AD0772
:100FCB007B08C2A1ED1392A17F057E00121000D207
:070FDB00A1EDC313FDDBEBE8
:010FE20022EC
:100DAA00E4FAFFFDFCF513F512F511F510120F42E6
:100DBA007FCC120FC97F44120FC9120F427FCC1287
:100DCA000FC97FBE120FC9120FABAA07120FABAD24
:100DDA0007EDFCEAFDE4120A03E4FBFA7980783DA8
:100DEA001208F88F138E128D118C10E4FFFE7D20ED
:100DFA007C41AB13AA12A911A8101208F8E4FBFA55
:090E0A00F9783F120807120A3CB6
:010E130022BC
:100F8C00120DAAEF24FBF50CEE34FFF50BD3E50C98
:0F0F9C0094B0E50B94044006750B04750CB0225D
:08101400C2A5120EECC2A722D6
:100F19007FC3121014E50975F00A120ABD2430FFC7
:100F2900120F3AE50975F00A120ABDAFF0EF243045
:010F3900FFB8
:080F3A00D2A5120EECC2A722A1
:100E6B007F381210147F0C1210147F061210147F8F
:100E7B00011210147F80121014E4FBEB900F6A9395
:100E8B00FF120F3A7F037E00120EFB0BBB10EC7FA1
:100E9B00C0121014E4FBEB900F7B93FF120F3A7F01
:0A0EAB00037E00120EFB0BBB10ECDF
:010EB500221A
:100C6000E5086003020D1D7F88121014AE0BAF0C57
:100C70007C037DE8120ADF120F36AE0BAF0C7C034B
:100C80007DE8120ADF7E007F64CFCDCFCECCCE12BE
:100C90000ADF120F36AE0BAF0C7C037DE8120ADFC1
:100CA0007E007F64CFCDCFCECCCE120ADF7E007F18
:100CB0000ACFCDCFCECCCE120ADF120F367F8C12E8
:100CC0001014AE0BAF0C7C037DE8120ADF7E007FB0
:100CD00064CFCDCFCECCCE120ADF7E007F0ACFCD3F
:100CE000CFCECCCE120ADFED2430FF120F3A7F8D2B
:100CF0001210147FDF120F3A120F197FDF120F3A12
:100D00007FCC121014E50A75F00A120ABD2430FFD8
:0E0D1000120F3AE50A120F2E7FDF120F3A2261
:100FE300758901758C3C758AB0D2AFD28CD2A92297
:100B4200209038C2A47F0A7E00120EFB20900C0572
:100B520008E508B40303E4F508D2A420901DE508D3
:100B620070047F0C8010E508B401047FC480027F0A
:100B7200CD1210147F0F12101480E020922CE50881
:100B820064017026C2A47F0AFE120EFB2092180591
:100B920009C3E509648094E34003750963120F19E0
:100BA2007FC4121014D2A43092FD20912AE5086469
:100BB200017024C2A47F0AFE120EFB2091161509B1
:100BC200E509B50A05E50A04F509120F197FC412F1
:100BD2001014D2A43091FD20923FE50864027039CE
:100BE200C2A47F0AFE120EFB20922B050AE50AB56B
:100BF2000905E50914F50A7FCC121014E50A75F00F
:100C02000A120ABD2430FF120F3AE50A120F2E7F94
:100C1200CD121014D2A43092FD209141E508640255
:100C2200703BC2A47F0AFE120EFB20912D150AD33F
:100C3200E50A648094805003E4F50A7FCC12101414
:100C4200E50A75F00A120ABD2430FF120F3AE50ACE
:0E0C5200120F2E7FCD121014D2A43091FD226D
:100E1400E50DC3940A4005B201E4F50DE508704000
:100E2400AE0BAF0CFC7D0A120ADFAD09ED3395E081
:100E3400FCC3EF9DEE9C400DC2A3D2A2300103C2BD
:100E4400A422D2A422AD0AED3395E0FCC3EF9DEEBB
:100E54009C500DC2A2D2A3300103C2A422D2A42268
:070E6400D2A4D2A3D2A22206
:100EB600120EF7120E6B120EF7120FE3E4F50EF593
:100EC6000F120F8C120EF7050FE50F7002050EC3F9
:100ED6009464E50E940040E9120C60120B42120E67
:060EE60014120F8C80F2D3
:03000B0002100BD5
:09100B00758C3C758AB0050D32AC
:10080000020AA8E86480F8E933E83360110460F074
:10081000ED33EC337009E8FCE9FDEAFEEBFF22045E
:1008200060DED3EB9FEA9EE99DE8C2E78CF0C2F759
:1008300095F0400CE8CCF8E9CDF9EACEFAEBCFFB25
:10084000120A7385D0F05804700320D5B3E8047001
:10085000075002B2D5020AB292D5EC0460F7E4CC9C
:10086000C0E0C398F8603B94186008400DD0E0FBEE
:10087000020A8AE4FBFAC9FC8028E830E406E4C9ED
:10088000FBE4CAFCE830E305E4C9CACBFCE8540742
:100890006010F8C3E913F9EA13FAEB13FBEC13FC4D
:1008A000D8F130F52FC3E49CFCEF9BFFEE9AFEEDF0
:1008B00099FDD0E0FBEF4E4D4C701222DB03020A93
:1008C000AFEC2CFCEF33FFEE33FEED33FDED30E704
:1008D000EB020A8AEF2BFFEE3AFEED39FDD0E0FB8A
:1008E00050130BBB0003020AB2ED13FDEE13FEEF33
:0808F00013FFEC13FC020A8A5D
:1008F800EC4D6011E8497017ED33EC3304600DE4FA
:10090800FCFFFEFD22E933E8330470F8020AA8125E
:100918000A7358046009E4CC24815006285009025F
:100928000AB2284003020AAFC0E0EB4A7044B9801B
:1009380006D0E0FB020A9EEF4E701CBD8008EBFF5C
:10094800EAFEE9FD80EBE98DF0A4FEE5F00209E19D
:10095800E9CDF9EAFEEBFFEF89F0A4FCE5F0CE89DA
:10096800F0A42EFFE435F0CD89F0A42DFEE435F097
:100978008067EF4E7005BD80D780C3EF8BF0A4ACC5
:10098800F0EE8BF0A42CFCE435F0F8EF8AF0A42C00
:10099800E5F038FCE433CB8DF0A42CFCE5F03BF813
:1009A800EE8AF0A42CFCE5F038F8E433CF89F0A403
:1009B8002CFCE5F038CF3400CE89F0A42FFFE5F009
:1009C8003EFEE433C98DF0A42EFEE5F039CD8AF061
:1009D800A42FFFE5F03EFEE43DFD33D0E0FB5007D9
:1009E8000BBB000F020AB2EC2CFCEF33FFEE33FE18
:0609F800ED33FD020A8A46
:1009FE0075F020800E75F010800575F0087D007E74
:100A0E00007F003392D530D503120B34EC334010F7
:100A1E00EF33FFEE33FEED33FDEC33FCD5F0ED227C
:0E0A2E00E5F0247EA2D513CC92E7CDCEFF22B8
:100A3C00EDD2E7CD33EC3392D524814006E4FFFEB2
:100A4C00FDFC22FCE4CFCECDCC24E0501174FF8011
:100A5C00EDC3CC13CCCD13CDCE13CECF13CF0470AE
:070A6C00F030D5DE020B346F
:100A7300E9D2E7C933E833F892D5EDD2E7CD33ECC9
:070A830033FC5002B2D52242
:100A8A00EC30E7100FBF000C0EBE00080DBD0004CD
:100A9A000BEB6014A2D5EB13FCED92E7FD2274FF79
:100AAA00FCFDFEFF22E480F8A2D574FF13FC7D80D2
:030ABA00E480EFE6
:03000000020D1ED0
:0C0D1E00787FE4F6D8FD758120020D6599
:100ABD00C2D530F707B2D563F0FF05F030E70CB2C1
:100ACD00D5F4048463F0FF05F080018430D502F481
:020ADD000422F1
:100ADF00BC000BBE0029EF8DF084FFADF022E4CCFB
:100AEF00F875F008EF2FFFEE33FEEC33FCEE9DECC4
:100AFF00984005FCEE9DFE0FD5F0E9E4CEFD22ED0A
:100B0F00F8F5F0EE8420D21CFEADF075F008EF2F53
:100B1F00FFED33FD4007985006D5F0F222C398FD44
:050B2F000FD5F0EA22E1
:0E0B3400C3E49FFFE49EFEE49DFDE49CFC22D2
:100D2A00020EB6E493A3F8E493A34003F68001F21B
:100D3A0008DFF48029E493A3F85407240CC8C333CA
:100D4A00C4540F4420C8834004F456800146F6DF99
:100D5A00E4800B0102040810204080900FF3E47E27
:100D6A00019360BCA3FF543F30E509541FFEE4938E
:100D7A00A360010ECF54C025E060A840B8E493A355
:100D8A00FAE493A3F8E493A3C8C582C8CAC583CA80
:100D9A00F0A3C8C582C8CAC583CADFE9DEE780BE38
:010FFF0000F1
:00000001FF
